{
  "contractName": "device",
  "abi": [
    {
      "inputs": [
        {
          "internalType": "address",
          "name": "",
          "type": "address"
        }
      ],
      "name": "devices",
      "outputs": [
        {
          "internalType": "bool",
          "name": "",
          "type": "bool"
        }
      ],
      "stateMutability": "view",
      "type": "function",
      "constant": true
    },
    {
      "inputs": [
        {
          "internalType": "bytes32",
          "name": "mOwner",
          "type": "bytes32"
        }
      ],
      "name": "addDevice",
      "outputs": [],
      "stateMutability": "nonpayable",
      "type": "function"
    },
    {
      "inputs": [],
      "name": "viewDevices",
      "outputs": [
        {
          "internalType": "address[]",
          "name": "",
          "type": "address[]"
        },
        {
          "internalType": "bytes32[]",
          "name": "",
          "type": "bytes32[]"
        }
      ],
      "stateMutability": "view",
      "type": "function",
      "constant": true
    },
    {
      "inputs": [
        {
          "internalType": "bytes32",
          "name": "hum",
          "type": "bytes32"
        },
        {
          "internalType": "bytes32",
          "name": "temp",
          "type": "bytes32"
        }
      ],
      "name": "storeFeed",
      "outputs": [],
      "stateMutability": "nonpayable",
      "type": "function"
    },
    {
      "inputs": [],
      "name": "viewFeed",
      "outputs": [
        {
          "internalType": "bytes32[]",
          "name": "",
          "type": "bytes32[]"
        },
        {
          "internalType": "bytes32[]",
          "name": "",
          "type": "bytes32[]"
        }
      ],
      "stateMutability": "nonpayable",
      "type": "function"
    }
  ],
  "bytecode": "0x608060405234801561001057600080fd5b50610adf806100206000396000f3fe608060405234801561001057600080fd5b50600436106100575760003560e01c80630d314a691461005c5780632a8197281461007b578063e159830f14610097578063e7b4cac6146100b3578063e8d2a16a146100e3575b600080fd5b610064610102565b60405161007292919061085d565b60405180910390f35b610095600480360381019061009091906108c5565b6101eb565b005b6100b160048036038101906100ac91906108f2565b610329565b005b6100cd60048036038101906100c8919061095e565b610442565b6040516100da91906109a6565b60405180910390f35b6100eb610462565b6040516100f99291906109c1565b60405180910390f35b606080600060018180548060200260200160405190810160405280929190818152602001828054801561018a57602002820191906000526020600020905b8160009054906101000a900473ffffffffffffffffffffffffffffffffffffffff1673ffffffffffffffffffffffffffffffffffffffff1681526020019060010190808311610140575b50505050509150808054806020026020016040519081016040528092919081815260200182805480156101dc57602002820191906000526020600020905b8154815260200190600101908083116101c8575b50505050509050915091509091565b600560003373ffffffffffffffffffffffffffffffffffffffff1673ffffffffffffffffffffffffffffffffffffffff16815260200190815260200160002060009054906101000a900460ff161561024257600080fd5b6001600560003373ffffffffffffffffffffffffffffffffffffffff1673ffffffffffffffffffffffffffffffffffffffff16815260200190815260200160002060006101000a81548160ff0219169083151502179055506000339080600181540180825580915050600190039060005260206000200160009091909190916101000a81548173ffffffffffffffffffffffffffffffffffffffff021916908373ffffffffffffffffffffffffffffffffffffffff160217905550600181908060018154018082558091505060019003906000526020600020016000909190919091505550565b600560003373ffffffffffffffffffffffffffffffffffffffff1673ffffffffffffffffffffffffffffffffffffffff16815260200190815260200160002060009054906101000a900460ff1661037f57600080fd5b600060405180606001604052808481526020018381526020013373ffffffffffffffffffffffffffffffffffffffff1681525090506004819080600181540180825580915050600190039060005260206000209060030201600090919091909150600082015181600001556020820151816001015560408201518160020160006101000a81548173ffffffffffffffffffffffffffffffffffffffff021916908373ffffffffffffffffffffffffffffffffffffffff1602179055505050505050565b60056020528060005260406000206000915054906101000a900460ff1681565b606080600560003373ffffffffffffffffffffffffffffffffffffffff1673ffffffffffffffffffffffffffffffffffffffff16815260200190815260200160002060009054906101000a900460ff166104bb57600080fd5b60005b6004805490508110156105f4573373ffffffffffffffffffffffffffffffffffffffff16600482815481106104f6576104f56109f8565b5b906000526020600020906003020160020160009054906101000a900473ffffffffffffffffffffffffffffffffffffffff1673ffffffffffffffffffffffffffffffffffffffff1614156105e15760026004828154811061055a576105596109f8565b5b90600052602060002090600302016000015490806001815401808255809150506001900390600052602060002001600090919091909150556003600482815481106105a8576105a76109f8565b5b90600052602060002090600302016001015490806001815401808255809150506001900390600052602060002001600090919091909150555b80806105ec90610a60565b9150506104be565b50600260038180548060200260200160405190810160405280929190818152602001828054801561064457602002820191906000526020600020905b815481526020019060010190808311610630575b505050505091508080548060200260200160405190810160405280929190818152602001828054801561069657602002820191906000526020600020905b815481526020019060010190808311610682575b50505050509050915091509091565b600081519050919050565b600082825260208201905092915050565b6000819050602082019050919050565b600073ffffffffffffffffffffffffffffffffffffffff82169050919050565b60006106fc826106d1565b9050919050565b61070c816106f1565b82525050565b600061071e8383610703565b60208301905092915050565b6000602082019050919050565b6000610742826106a5565b61074c81856106b0565b9350610757836106c1565b8060005b8381101561078857815161076f8882610712565b975061077a8361072a565b92505060018101905061075b565b5085935050505092915050565b600081519050919050565b600082825260208201905092915050565b6000819050602082019050919050565b6000819050919050565b6107d4816107c1565b82525050565b60006107e683836107cb565b60208301905092915050565b6000602082019050919050565b600061080a82610795565b61081481856107a0565b935061081f836107b1565b8060005b8381101561085057815161083788826107da565b9750610842836107f2565b925050600181019050610823565b5085935050505092915050565b600060408201905081810360008301526108778185610737565b9050818103602083015261088b81846107ff565b90509392505050565b600080fd5b6108a2816107c1565b81146108ad57600080fd5b50565b6000813590506108bf81610899565b92915050565b6000602082840312156108db576108da610894565b5b60006108e9848285016108b0565b91505092915050565b6000806040838503121561090957610908610894565b5b6000610917858286016108b0565b9250506020610928858286016108b0565b9150509250929050565b61093b816106f1565b811461094657600080fd5b50565b60008135905061095881610932565b92915050565b60006020828403121561097457610973610894565b5b600061098284828501610949565b91505092915050565b60008115159050919050565b6109a08161098b565b82525050565b60006020820190506109bb6000830184610997565b92915050565b600060408201905081810360008301526109db81856107ff565b905081810360208301526109ef81846107ff565b90509392505050565b7f4e487b7100000000000000000000000000000000000000000000000000000000600052603260045260246000fd5b7f4e487b7100000000000000000000000000000000000000000000000000000000600052601160045260246000fd5b6000819050919050565b6000610a6b82610a56565b91507fffffffffffffffffffffffffffffffffffffffffffffffffffffffffffffffff821415610a9e57610a9d610a27565b5b60018201905091905056fea2646970667358221220728bbbbe1aa3afe8503f229bc39864fe17a9b3cafd32e638acde4ba8c128ac7464736f6c634300080a0033",
  "immutableReferences": {},
  "source": "// contract for adding device\r\npragma solidity ^0.8.10;\r\n\r\ncontract device {\r\n    address[] deviceAddr;\r\n    bytes32[] mobileOwner;\r\n    bytes32[] h;\r\n    bytes32[] t;\r\n\r\n    struct iotFeed {\r\n        bytes32 hum;\r\n        bytes32 temp;\r\n        address userId;\r\n    }\r\n\r\n    iotFeed[] sensorFeed;\r\n\r\n    mapping(address => bool) public devices;\r\n\r\n    function addDevice(bytes32 mOwner) public {\r\n        require(!devices[msg.sender]);\r\n        devices[msg.sender]=true;\r\n        deviceAddr.push(msg.sender);\r\n        mobileOwner.push(mOwner);\r\n    }\r\n    \r\n    function viewDevices() public view returns (address[] memory, bytes32[] memory) {\r\n        return(deviceAddr,mobileOwner);\r\n    }\r\n\r\n    function storeFeed(bytes32 hum, bytes32 temp) public {\r\n        require(devices[msg.sender]);\r\n        iotFeed memory new_feed= iotFeed(hum,temp,msg.sender);\r\n        sensorFeed.push(new_feed);\r\n    }\r\n    function viewFeed() public returns (bytes32[] memory,bytes32[] memory) {\r\n        require(devices[msg.sender]);\r\n        \r\n        for(uint i=0;i<sensorFeed.length;i++) {\r\n            if(sensorFeed[i].userId==msg.sender) {\r\n                h.push(sensorFeed[i].hum);\r\n                t.push(sensorFeed[i].temp);\r\n            }\r\n        }\r\n        return (h,t);\r\n    }\r\n}\r\n\r\n",
  "sourcePath": "D:\\maddy-workspace\\youtube-live\\3rd Feb-Blockchain\\work\\contracts\\device.sol",
  "compiler": {
    "name": "solc",
    "version": "0.8.10+commit.fc410830.Emscripten.clang"
  },
  "schemaVersion": "3.4.4",
  "updatedAt": "2022-02-02T20:24:32.658Z",
  "networkType": "ethereum",
  "devdoc": {
    "kind": "dev",
    "methods": {},
    "version": 1
  },
  "userdoc": {
    "kind": "user",
    "methods": {},
    "version": 1
  }
}